{
  "transactions": [
    {
      "hash": "0xeb11e14f9ff4b44447aaa800bab4f8824fae99f55888f9297d334c781dfc092f",
      "transactionType": "CALL",
      "contractName": null,
      "contractAddress": "0x24260d046005f74aca953e3aa00028defadabdc7",
      "function": "bridge(uint256,address,uint256)",
      "arguments": [
        "84532",
        "0x25Fbb765998134400f6e2D4191e89C37dB40fa98",
        "10000000000000000000000"
      ],
      "transaction": {
        "from": "0x25fbb765998134400f6e2d4191e89c37db40fa98",
        "to": "0x24260d046005f74aca953e3aa00028defadabdc7",
        "gas": "0x16d58",
        "value": "0x0",
        "input": "0x2f820a5f0000000000000000000000000000000000000000000000000000000000014a3400000000000000000000000025fbb765998134400f6e2d4191e89c37db40fa9800000000000000000000000000000000000000000000021e19e0c9bab2400000",
        "nonce": "0x5",
        "chainId": "0x66eee"
      },
      "additionalContracts": [],
      "isFixedGasLimit": false
    }
  ],
  "receipts": [
    {
      "status": "0x1",
      "cumulativeGasUsed": "0x115a8",
      "logs": [
        {
          "address": "0x24260d046005f74aca953e3aa00028defadabdc7",
          "topics": [
            "0xddf252ad1be2c89b69c2b068fc378daa952ba7f163c4a11628f55a4df523b3ef",
            "0x00000000000000000000000025fbb765998134400f6e2d4191e89c37db40fa98",
            "0x0000000000000000000000000000000000000000000000000000000000000000"
          ],
          "data": "0x00000000000000000000000000000000000000000000021e19e0c9bab2400000",
          "blockHash": "0x70b97bfbc08f44e817f1b0b77d92ac7c7413d40756b364ea9946459ff0b2f9d1",
          "blockNumber": "0x8066519",
          "transactionHash": "0xeb11e14f9ff4b44447aaa800bab4f8824fae99f55888f9297d334c781dfc092f",
          "transactionIndex": "0x1",
          "logIndex": "0x0",
          "removed": false
        },
        {
          "address": "0x0d7e59b0390e47e6c3a29ccdf68e43f3e50e2119",
          "topics": [
            "0x9834f28f43506b43566f34f4f5ebe894dd1fff56af9407054982215536a4cb4c"
          ],
          "data": "0x0000000000000000000000000000000000000000883b17b9c063709c2b0074dc00000000000000000000000024260d046005f74aca953e3aa00028defadabdc7000000000000000000000000bd39a7fabbc9d92df06d93b226c62ea820ccf3250000000000000000000000000000000000000000000000000000000000014a34000000000000000000000000000000000000000000000000000000000000000000000000000000000000000000000000000000000000000000000000000000e00000000000000000000000000000000000000000000000000000000000000001000000000000000000000000000000000000000000000000000000000000004000000000000000000000000025fbb765998134400f6e2d4191e89c37db40fa9800000000000000000000000000000000000000000000021e19e0c9bab2400000",
          "blockHash": "0x70b97bfbc08f44e817f1b0b77d92ac7c7413d40756b364ea9946459ff0b2f9d1",
          "blockNumber": "0x8066519",
          "transactionHash": "0xeb11e14f9ff4b44447aaa800bab4f8824fae99f55888f9297d334c781dfc092f",
          "transactionIndex": "0x1",
          "logIndex": "0x1",
          "removed": false
        }
      ],
      "logsBloom": "0x00000000000000000000000000000000000000000002000000000000000000000000000000002100000002000000000000000000000000000000000000000000000000000000000000000008000000000000000000000000000000000000000000000000020010000000000000000800000000000000000000000010000000000000000000000000000000000000000000000000000000000000000000000000001000000000000000000000000000000000000000000000000400000000000800000102400000000000000000000080000000000000000000000000000020000000000000000000000000000000000000000000000000000004000000000000",
      "type": "0x2",
      "transactionHash": "0xeb11e14f9ff4b44447aaa800bab4f8824fae99f55888f9297d334c781dfc092f",
      "transactionIndex": "0x1",
      "blockHash": "0x70b97bfbc08f44e817f1b0b77d92ac7c7413d40756b364ea9946459ff0b2f9d1",
      "blockNumber": "0x8066519",
      "gasUsed": "0x115a8",
      "effectiveGasPrice": "0x5f5e100",
      "from": "0x25fbb765998134400f6e2d4191e89c37db40fa98",
      "to": "0x24260d046005f74aca953e3aa00028defadabdc7",
      "contractAddress": null,
      "gasUsedForL1": "0x0",
      "l1BlockNumber": "0x795cfe",
      "timeboosted": false
    }
  ],
  "libraries": [],
  "pending": [],
  "returns": {},
  "timestamp": 1742611173,
  "chain": 421614,
  "commit": "c15bd63"
}