{
  "transactions": [
    {
      "hash": "0x20b85ea0a2cdcb7b52d6947f3724ad8939ac62da7e4b7791201bca51cc540627",
      "transactionType": "CALL",
      "contractName": null,
      "contractAddress": "0x24260d046005f74aca953e3aa00028defadabdc7",
      "function": "configureClient(address,uint256[],address[],uint16[])",
      "arguments": [
        "0x0D7e59B0390e47E6C3a29cCdF68e43f3e50e2119",
        "[421614, 84532]",
        "[0x24260d046005f74aCa953e3aA00028DEFadABdC7, 0xbd39A7fAbBc9D92df06d93B226C62EA820CCf325]",
        "[1, 1]"
      ],
      "transaction": {
        "from": "0x25fbb765998134400f6e2d4191e89c37db40fa98",
        "to": "0x24260d046005f74aca953e3aa00028defadabdc7",
        "gas": "0x4c912",
        "value": "0x0",
        "input": "0x2ee02d7c0000000000000000000000000d7e59b0390e47e6c3a29ccdf68e43f3e50e2119000000000000000000000000000000000000000000000000000000000000008000000000000000000000000000000000000000000000000000000000000000e0000000000000000000000000000000000000000000000000000000000000014000000000000000000000000000000000000000000000000000000000000000020000000000000000000000000000000000000000000000000000000000066eee0000000000000000000000000000000000000000000000000000000000014a34000000000000000000000000000000000000000000000000000000000000000200000000000000000000000024260d046005f74aca953e3aa00028defadabdc7000000000000000000000000bd39a7fabbc9d92df06d93b226c62ea820ccf325000000000000000000000000000000000000000000000000000000000000000200000000000000000000000000000000000000000000000000000000000000010000000000000000000000000000000000000000000000000000000000000001",
        "nonce": "0x4",
        "chainId": "0x66eee"
      },
      "additionalContracts": [],
      "isFixedGasLimit": false
    }
  ],
  "receipts": [
    {
      "status": "0x1",
      "cumulativeGasUsed": "0x3a26b",
      "logs": [
        {
          "address": "0x75faf114eafb1bdbe2f0316df893fd58ce46aa4d",
          "topics": [
            "0x8c5be1e5ebec7d5bd14f71427d1e84f3dd0314c0f7b2291e5b200ac8c7c3b925",
            "0x00000000000000000000000024260d046005f74aca953e3aa00028defadabdc7",
            "0x0000000000000000000000000d7e59b0390e47e6c3a29ccdf68e43f3e50e2119"
          ],
          "data": "0xffffffffffffffffffffffffffffffffffffffffffffffffffffffffffffffff",
          "blockHash": "0xbf646411c01294d09c03bd37b5bfd70b196a31d9fd752d165c617210620bf312",
          "blockNumber": "0x8065e81",
          "transactionHash": "0x20b85ea0a2cdcb7b52d6947f3724ad8939ac62da7e4b7791201bca51cc540627",
          "transactionIndex": "0x1",
          "logIndex": "0x0",
          "removed": false
        },
        {
          "address": "0x47963cb18b1aef899efcdc5ef7341b5167e5d4e0",
          "topics": [
            "0x8c5be1e5ebec7d5bd14f71427d1e84f3dd0314c0f7b2291e5b200ac8c7c3b925",
            "0x00000000000000000000000024260d046005f74aca953e3aa00028defadabdc7",
            "0x0000000000000000000000000d7e59b0390e47e6c3a29ccdf68e43f3e50e2119"
          ],
          "data": "0xffffffffffffffffffffffffffffffffffffffffffffffffffffffffffffffff",
          "blockHash": "0xbf646411c01294d09c03bd37b5bfd70b196a31d9fd752d165c617210620bf312",
          "blockNumber": "0x8065e81",
          "transactionHash": "0x20b85ea0a2cdcb7b52d6947f3724ad8939ac62da7e4b7791201bca51cc540627",
          "transactionIndex": "0x1",
          "logIndex": "0x1",
          "removed": false
        }
      ],
      "logsBloom": "0x00000000000000000000000000000000000000000000000000000000000000000000010000000000000000000000000000000000000000000000000000200000800008000000000000000000000000000000000000000000000000000000000000000000000000000000000000000000000000000200000000000000000000000000000000000000000000000000001000000000000000000000000000000100020000000000000000000000000000000000000000000000000000000000000000000000000000000000000000000000000000000000000000004100000000000010000000000000000400000000000000080000000000000100000000000004",
      "type": "0x2",
      "transactionHash": "0x20b85ea0a2cdcb7b52d6947f3724ad8939ac62da7e4b7791201bca51cc540627",
      "transactionIndex": "0x1",
      "blockHash": "0xbf646411c01294d09c03bd37b5bfd70b196a31d9fd752d165c617210620bf312",
      "blockNumber": "0x8065e81",
      "gasUsed": "0x3a26b",
      "effectiveGasPrice": "0x5f5e100",
      "from": "0x25fbb765998134400f6e2d4191e89c37db40fa98",
      "to": "0x24260d046005f74aca953e3aa00028defadabdc7",
      "contractAddress": null,
      "gasUsedForL1": "0x0",
      "l1BlockNumber": "0x795cd6",
      "timeboosted": false
    }
  ],
  "libraries": [],
  "pending": [],
  "returns": {},
  "timestamp": 1742610699,
  "chain": 421614,
  "commit": "c15bd63"
}