{
  "transactions": [
    {
      "hash": "0x9f81366ce10b411b8f159d9b327fe33252d8f1ddbdfc3db9bdd1859bb4d003ae",
      "transactionType": "CALL",
      "contractName": null,
      "contractAddress": "0xbd39a7fabbc9d92df06d93b226c62ea820ccf325",
      "function": "configureClient(address,uint256[],address[],uint16[])",
      "arguments": [
        "0xE700Ee5d8B7dEc62987849356821731591c048cF",
        "[84532, 421614]",
        "[0xbd39A7fAbBc9D92df06d93B226C62EA820CCf325, 0x24260d046005f74aCa953e3aA00028DEFadABdC7]",
        "[1, 1]"
      ],
      "transaction": {
        "from": "0x25fbb765998134400f6e2d4191e89c37db40fa98",
        "to": "0xbd39a7fabbc9d92df06d93b226c62ea820ccf325",
        "gas": "0x50512",
        "value": "0x0",
        "input": "0x2ee02d7c000000000000000000000000e700ee5d8b7dec62987849356821731591c048cf000000000000000000000000000000000000000000000000000000000000008000000000000000000000000000000000000000000000000000000000000000e0000000000000000000000000000000000000000000000000000000000000014000000000000000000000000000000000000000000000000000000000000000020000000000000000000000000000000000000000000000000000000000014a340000000000000000000000000000000000000000000000000000000000066eee0000000000000000000000000000000000000000000000000000000000000002000000000000000000000000bd39a7fabbc9d92df06d93b226c62ea820ccf32500000000000000000000000024260d046005f74aca953e3aa00028defadabdc7000000000000000000000000000000000000000000000000000000000000000200000000000000000000000000000000000000000000000000000000000000010000000000000000000000000000000000000000000000000000000000000001",
        "nonce": "0x1",
        "chainId": "0x14a34"
      },
      "additionalContracts": [],
      "isFixedGasLimit": false
    }
  ],
  "receipts": [
    {
      "status": "0x1",
      "cumulativeGasUsed": "0x1b952da",
      "logs": [
        {
          "address": "0x036cbd53842c5426634e7929541ec2318f3dcf7e",
          "topics": [
            "0x8c5be1e5ebec7d5bd14f71427d1e84f3dd0314c0f7b2291e5b200ac8c7c3b925",
            "0x000000000000000000000000bd39a7fabbc9d92df06d93b226c62ea820ccf325",
            "0x000000000000000000000000e700ee5d8b7dec62987849356821731591c048cf"
          ],
          "data": "0xffffffffffffffffffffffffffffffffffffffffffffffffffffffffffffffff",
          "blockHash": "0x614875172e5939e7baafa6944f4ba51408f4ffba4fd2ed3a3f8b31fed5dd8f7a",
          "blockNumber": "0x1656166",
          "transactionHash": "0x9f81366ce10b411b8f159d9b327fe33252d8f1ddbdfc3db9bdd1859bb4d003ae",
          "transactionIndex": "0x56",
          "logIndex": "0x2cc",
          "removed": false
        },
        {
          "address": "0x32d9c1da01f221aa0eab4a0771aaa8e2344ecd35",
          "topics": [
            "0x8c5be1e5ebec7d5bd14f71427d1e84f3dd0314c0f7b2291e5b200ac8c7c3b925",
            "0x000000000000000000000000bd39a7fabbc9d92df06d93b226c62ea820ccf325",
            "0x000000000000000000000000e700ee5d8b7dec62987849356821731591c048cf"
          ],
          "data": "0xffffffffffffffffffffffffffffffffffffffffffffffffffffffffffffffff",
          "blockHash": "0x614875172e5939e7baafa6944f4ba51408f4ffba4fd2ed3a3f8b31fed5dd8f7a",
          "blockNumber": "0x1656166",
          "transactionHash": "0x9f81366ce10b411b8f159d9b327fe33252d8f1ddbdfc3db9bdd1859bb4d003ae",
          "transactionIndex": "0x56",
          "logIndex": "0x2cd",
          "removed": false
        }
      ],
      "logsBloom": "0x00000000040000000000000000000000000000000000000000040000000000000000000000000100000000000000000001000000000000000000000000200000000000000000000000000000000000000000800000000000000000000000000800000000000000000000000000000000000000000000000040000000000000000000000000000000000000000000000000000000000000000000000800000000020000000000000000000000000000000000080000000000000000000000000000000000008000000000000000000000000000000000000000000000000000000010000000000000080000000020000000000000000000000000000000000000",
      "type": "0x2",
      "transactionHash": "0x9f81366ce10b411b8f159d9b327fe33252d8f1ddbdfc3db9bdd1859bb4d003ae",
      "transactionIndex": "0x56",
      "blockHash": "0x614875172e5939e7baafa6944f4ba51408f4ffba4fd2ed3a3f8b31fed5dd8f7a",
      "blockNumber": "0x1656166",
      "gasUsed": "0x3a25f",
      "effectiveGasPrice": "0x147cd3",
      "from": "0x25fbb765998134400f6e2d4191e89c37db40fa98",
      "to": "0xbd39a7fabbc9d92df06d93b226c62ea820ccf325",
      "contractAddress": null,
      "l1BaseFeeScalar": "0x44d",
      "l1BlobBaseFee": "0x1",
      "l1BlobBaseFeeScalar": "0xa118b",
      "l1Fee": "0x87fa77",
      "l1GasPrice": "0x2cfe36",
      "l1GasUsed": "0xab8"
    }
  ],
  "libraries": [],
  "pending": [],
  "returns": {},
  "timestamp": 1742610861,
  "chain": 84532,
  "commit": "c15bd63"
}